{
  "contractName": "BrownieToken",
  "abi": [
    {
      "inputs": [],
      "payable": false,
      "stateMutability": "nonpayable",
      "type": "constructor"
    },
    {
      "constant": true,
      "inputs": [],
      "name": "totalSupply",
      "outputs": [
        {
          "internalType": "uint256",
          "name": "",
          "type": "uint256"
        }
      ],
      "payable": false,
      "stateMutability": "view",
      "type": "function"
    }
  ],
  "bytecode": "0x6080604052348015600f57600080fd5b506103e86000819055506084806100276000396000f3fe6080604052348015600f57600080fd5b506004361060285760003560e01c806318160ddd14602d575b600080fd5b60336049565b6040518082815260200191505060405180910390f35b6000548156fea265627a7a723158205e52323ac7a5e48e2c52973f5a11513f0214c4d4de612128a8738b00bafd16c664736f6c634300050c0032",
  "source": "pragma solidity ^0.5.0;\n\ncontract BrownieToken{\n  uint public totalSupply;\n\n  constructor() public {\n    totalSupply = 1000;\n  }\n}",
  "sourcePath": "/home/godcrampy/Code/Working/brownie-token/contracts/BrownieToken.sol",
  "compiler": {
    "name": "solc",
    "version": "0.5.12+commit.7709ece9.Emscripten.clang"
  },
  "schemaVersion": "3.0.19",
  "updatedAt": "2019-12-19T11:25:53.743Z",
  "networkType": "ethereum",
  "devdoc": {
    "methods": {}
  },
  "userdoc": {
    "methods": {}
  }
}