{
  "contractName": "BrownieToken",
  "abi": [
    {
      "inputs": [],
      "payable": false,
      "stateMutability": "nonpayable",
      "type": "constructor"
    },
    {
      "constant": true,
      "inputs": [
        {
          "internalType": "address",
          "name": "",
          "type": "address"
        }
      ],
      "name": "balanceOf",
      "outputs": [
        {
          "internalType": "uint256",
          "name": "",
          "type": "uint256"
        }
      ],
      "payable": false,
      "stateMutability": "view",
      "type": "function"
    },
    {
      "constant": true,
      "inputs": [],
      "name": "totalSupply",
      "outputs": [
        {
          "internalType": "uint256",
          "name": "",
          "type": "uint256"
        }
      ],
      "payable": false,
      "stateMutability": "view",
      "type": "function"
    }
  ],
  "bytecode": "0x608060405234801561001057600080fd5b506103e8600081905550600054600160003373ffffffffffffffffffffffffffffffffffffffff1673ffffffffffffffffffffffffffffffffffffffff1681526020019081526020016000208190555060fb8061006e6000396000f3fe6080604052348015600f57600080fd5b506004361060325760003560e01c806318160ddd14603757806370a08231146053575b600080fd5b603d60a8565b6040518082815260200191505060405180910390f35b609260048036036020811015606757600080fd5b81019080803573ffffffffffffffffffffffffffffffffffffffff16906020019092919050505060ae565b6040518082815260200191505060405180910390f35b60005481565b6001602052806000526040600020600091509050548156fea265627a7a72315820798c2add61956a6cd0421005903bd722182e8349fdd8116af86f39ceec12978c64736f6c634300050c0032",
  "source": "pragma solidity ^0.5.0;\n\ncontract BrownieToken{\n  uint public totalSupply;\n\n  mapping (address => uint) public balanceOf;\n\n  constructor() public {\n    totalSupply = 1000;\n    balanceOf[msg.sender] = totalSupply;\n  }\n}",
  "sourcePath": "/home/godcrampy/Code/Working/brownie-token/contracts/BrownieToken.sol",
  "compiler": {
    "name": "solc",
    "version": "0.5.12+commit.7709ece9.Emscripten.clang"
  },
  "schemaVersion": "3.0.19",
  "updatedAt": "2019-12-19T12:41:15.839Z",
  "networkType": "ethereum",
  "devdoc": {
    "methods": {}
  },
  "userdoc": {
    "methods": {}
  }
}